{
  "contractName": "UserIdentityManagement",
  "abi": [
    {
      "constant": false,
      "inputs": [
        {
          "name": "requesterAddress",
          "type": "address"
        },
        {
          "name": "aId",
          "type": "uint256"
        }
      ],
      "name": "getRequesterMapping",
      "outputs": [],
      "payable": false,
      "stateMutability": "nonpayable",
      "type": "function"
    },
    {
      "constant": false,
      "inputs": [
        {
          "name": "r",
          "type": "address"
        }
      ],
      "name": "viewReceivedGrants",
      "outputs": [
        {
          "name": "grantIds",
          "type": "uint256[]"
        }
      ],
      "payable": false,
      "stateMutability": "nonpayable",
      "type": "function"
    },
    {
      "constant": false,
      "inputs": [],
      "name": "kill",
      "outputs": [],
      "payable": false,
      "stateMutability": "nonpayable",
      "type": "function"
    },
    {
      "constant": false,
      "inputs": [
        {
          "name": "s",
          "type": "address"
        },
        {
          "name": "r",
          "type": "address"
        },
        {
          "name": "fn",
          "type": "bool"
        },
        {
          "name": "ln",
          "type": "bool"
        },
        {
          "name": "dob",
          "type": "bool"
        },
        {
          "name": "gn",
          "type": "bool"
        },
        {
          "name": "ph",
          "type": "bool"
        }
      ],
      "name": "sendProposal",
      "outputs": [],
      "payable": false,
      "stateMutability": "nonpayable",
      "type": "function"
    },
    {
      "constant": false,
      "inputs": [
        {
          "name": "toLock",
          "type": "address"
        }
      ],
      "name": "unLock",
      "outputs": [
        {
          "name": "isLocked",
          "type": "bool"
        }
      ],
      "payable": false,
      "stateMutability": "nonpayable",
      "type": "function"
    },
    {
      "constant": false,
      "inputs": [
        {
          "name": "s",
          "type": "address"
        },
        {
          "name": "r",
          "type": "address"
        },
        {
          "name": "pid",
          "type": "uint256"
        },
        {
          "name": "fn",
          "type": "bool"
        },
        {
          "name": "ln",
          "type": "bool"
        },
        {
          "name": "dob",
          "type": "bool"
        },
        {
          "name": "gn",
          "type": "bool"
        },
        {
          "name": "ph",
          "type": "bool"
        }
      ],
      "name": "sendGrant",
      "outputs": [],
      "payable": false,
      "stateMutability": "nonpayable",
      "type": "function"
    },
    {
      "constant": false,
      "inputs": [
        {
          "name": "r",
          "type": "address"
        }
      ],
      "name": "viewReceivedProposals",
      "outputs": [
        {
          "name": "proposalIds",
          "type": "uint256[]"
        }
      ],
      "payable": false,
      "stateMutability": "nonpayable",
      "type": "function"
    },
    {
      "constant": false,
      "inputs": [
        {
          "name": "s",
          "type": "address"
        }
      ],
      "name": "viewSentGrant",
      "outputs": [
        {
          "name": "grantIds",
          "type": "uint256[]"
        }
      ],
      "payable": false,
      "stateMutability": "nonpayable",
      "type": "function"
    },
    {
      "constant": false,
      "inputs": [
        {
          "name": "toLock",
          "type": "address"
        }
      ],
      "name": "lock",
      "outputs": [
        {
          "name": "isLocked",
          "type": "bool"
        }
      ],
      "payable": false,
      "stateMutability": "nonpayable",
      "type": "function"
    },
    {
      "constant": false,
      "inputs": [
        {
          "name": "s",
          "type": "address"
        }
      ],
      "name": "viewSentProposals",
      "outputs": [
        {
          "name": "proposalIds",
          "type": "uint256[]"
        }
      ],
      "payable": false,
      "stateMutability": "nonpayable",
      "type": "function"
    },
    {
      "inputs": [],
      "payable": false,
      "stateMutability": "nonpayable",
      "type": "constructor"
    }
  ],
  "bytecode": "0x6060604052341561000f57600080fd5b33600160006101000a81548173ffffffffffffffffffffffffffffffffffffffff021916908373ffffffffffffffffffffffffffffffffffffffff160217905550611a558061005f6000396000f3006060604052600436106100a4576000357c0100000000000000000000000000000000000000000000000000000000900463ffffffff168063315e318d146100a957806338930b99146100eb57806341c0e1b5146101795780637261764e1461018e57806376e6d2b41461021d5780638f247b5d1461026e578063a720ba7314610306578063be4aa7ca14610394578063f435f5a714610422578063ff81e55f14610473575b600080fd5b34156100b457600080fd5b6100e9600480803573ffffffffffffffffffffffffffffffffffffffff16906020019091908035906020019091905050610501565b005b34156100f657600080fd5b610122600480803573ffffffffffffffffffffffffffffffffffffffff16906020019091905050610580565b6040518080602001828103825283818151815260200191508051906020019060200280838360005b8381101561016557808201518184015260208101905061014a565b505050509050019250505060405180910390f35b341561018457600080fd5b61018c6106c0565b005b341561019957600080fd5b61021b600480803573ffffffffffffffffffffffffffffffffffffffff1690602001909190803573ffffffffffffffffffffffffffffffffffffffff1690602001909190803515159060200190919080351515906020019091908035151590602001909190803515159060200190919080351515906020019091905050610753565b005b341561022857600080fd5b610254600480803573ffffffffffffffffffffffffffffffffffffffff16906020019091905050610944565b604051808215151515815260200191505060405180910390f35b341561027957600080fd5b610304600480803573ffffffffffffffffffffffffffffffffffffffff1690602001909190803573ffffffffffffffffffffffffffffffffffffffff16906020019091908035906020019091908035151590602001909190803515159060200190919080351515906020019091908035151590602001909190803515159060200190919050506109f7565b005b341561031157600080fd5b61033d600480803573ffffffffffffffffffffffffffffffffffffffff1690602001909190505061114a565b6040518080602001828103825283818151815260200191508051906020019060200280838360005b83811015610380578082015181840152602081019050610365565b505050509050019250505060405180910390f35b341561039f57600080fd5b6103cb600480803573ffffffffffffffffffffffffffffffffffffffff1690602001909190505061128a565b6040518080602001828103825283818151815260200191508051906020019060200280838360005b8381101561040e5780820151818401526020810190506103f3565b505050509050019250505060405180910390f35b341561042d57600080fd5b610459600480803573ffffffffffffffffffffffffffffffffffffffff169060200190919050506113ca565b604051808215151515815260200191505060405180910390f35b341561047e57600080fd5b6104aa600480803573ffffffffffffffffffffffffffffffffffffffff1690602001909190505061147e565b6040518080602001828103825283818151815260200191508051906020019060200280838360005b838110156104ed5780820151818401526020810190506104d2565b505050509050019250505060405180910390f35b816006600083815260200190815260200160002060006101000a81548173ffffffffffffffffffffffffffffffffffffffff021916908373ffffffffffffffffffffffffffffffffffffffff1602179055506005805480600101828161056791906115cb565b9160005260206000209001600083909190915055505050565b6105886115f7565b600080600090505b600480549050811015610667578373ffffffffffffffffffffffffffffffffffffffff166004828154811015156105c357fe5b906000526020600020906009020160030160009054906101000a900473ffffffffffffffffffffffffffffffffffffffff1673ffffffffffffffffffffffffffffffffffffffff16141561065a5781805480600101828161062491906115cb565b9160005260206000209001600060048481548110151561064057fe5b906000526020600020906009020160000154909190915055505b8080600101915050610590565b818054806020026020016040519081016040528092919081815260200182805480156106b257602002820191906000526020600020905b81548152602001906001019080831161069e575b505050505092505050919050565b600160009054906101000a900473ffffffffffffffffffffffffffffffffffffffff1673ffffffffffffffffffffffffffffffffffffffff163373ffffffffffffffffffffffffffffffffffffffff16141561075157600160009054906101000a900473ffffffffffffffffffffffffffffffffffffffff1673ffffffffffffffffffffffffffffffffffffffff16ff5b565b61075b61160b565b610100604051908101604052806107706115be565b8152602001871515815260200186151581526020018515158152602001841515815260200183151581526020018973ffffffffffffffffffffffffffffffffffffffff1681526020018873ffffffffffffffffffffffffffffffffffffffff168152509050600380548060010182816107e99190611687565b916000526020600020906003020160008390919091506000820151816000015560208201518160010160006101000a81548160ff02191690831515021790555060408201518160010160016101000a81548160ff02191690831515021790555060608201518160010160026101000a81548160ff02191690831515021790555060808201518160010160036101000a81548160ff02191690831515021790555060a08201518160010160046101000a81548160ff02191690831515021790555060c08201518160010160056101000a81548173ffffffffffffffffffffffffffffffffffffffff021916908373ffffffffffffffffffffffffffffffffffffffff16021790555060e08201518160020160006101000a81548173ffffffffffffffffffffffffffffffffffffffff021916908373ffffffffffffffffffffffffffffffffffffffff1602179055505050505050505050505050565b600080600260008473ffffffffffffffffffffffffffffffffffffffff1673ffffffffffffffffffffffffffffffffffffffff16815260200190815260200160002060050160006101000a81548160ff021916908315150217905550600260008373ffffffffffffffffffffffffffffffffffffffff1673ffffffffffffffffffffffffffffffffffffffff16815260200190815260200160002060050160009054906101000a900460ff169050919050565b6109ff6116b9565b6101206040519081016040528060008152602001600081526020013373ffffffffffffffffffffffffffffffffffffffff1681526020013373ffffffffffffffffffffffffffffffffffffffff1681526020016020604051908101604052806000815250815260200160206040519081016040528060008152508152602001602060405190810160405280600081525081526020016020604051908101604052806000815250815260200160206040519081016040528060008152508152509050610ac86115be565b8160000181815250508681602001818152505088816040019073ffffffffffffffffffffffffffffffffffffffff16908173ffffffffffffffffffffffffffffffffffffffff168152505087816060019073ffffffffffffffffffffffffffffffffffffffff16908173ffffffffffffffffffffffffffffffffffffffff16815250508515610c3557600260008a73ffffffffffffffffffffffffffffffffffffffff1673ffffffffffffffffffffffffffffffffffffffff1681526020019081526020016000206000018054600181600116156101000203166002900480601f016020809104026020016040519081016040528092919081815260200182805460018160011615610100020316600290048015610c275780601f10610bfc57610100808354040283529160200191610c27565b820191906000526020600020905b815481529060010190602001808311610c0a57829003601f168201915b505050505081608001819052505b8415610d1f57600260008a73ffffffffffffffffffffffffffffffffffffffff1673ffffffffffffffffffffffffffffffffffffffff1681526020019081526020016000206001018054600181600116156101000203166002900480601f016020809104026020016040519081016040528092919081815260200182805460018160011615610100020316600290048015610d115780601f10610ce657610100808354040283529160200191610d11565b820191906000526020600020905b815481529060010190602001808311610cf457829003601f168201915b50505050508160a001819052505b8215610e0a57600260008a73ffffffffffffffffffffffffffffffffffffffff1673ffffffffffffffffffffffffffffffffffffffff1681526020019081526020016000206004018054600181600116156101000203166002900480601f016020809104026020016040519081016040528092919081815260200182805460018160011615610100020316600290048015610dfb5780601f10610dd057610100808354040283529160200191610dfb565b820191906000526020600020905b815481529060010190602001808311610dde57829003601f168201915b50505050508161010001819052505b8115610ef457600260008a73ffffffffffffffffffffffffffffffffffffffff1673ffffffffffffffffffffffffffffffffffffffff1681526020019081526020016000206003018054600181600116156101000203166002900480601f016020809104026020016040519081016040528092919081815260200182805460018160011615610100020316600290048015610ee65780601f10610ebb57610100808354040283529160200191610ee6565b820191906000526020600020905b815481529060010190602001808311610ec957829003601f168201915b50505050508160e001819052505b8315610fde57600260008a73ffffffffffffffffffffffffffffffffffffffff1673ffffffffffffffffffffffffffffffffffffffff1681526020019081526020016000206002018054600181600116156101000203166002900480601f016020809104026020016040519081016040528092919081815260200182805460018160011615610100020316600290048015610fd05780601f10610fa557610100808354040283529160200191610fd0565b820191906000526020600020905b815481529060010190602001808311610fb357829003601f168201915b50505050508160c001819052505b60048054806001018281610ff29190611750565b91600052602060002090600902016000839091909150600082015181600001556020820151816001015560408201518160020160006101000a81548173ffffffffffffffffffffffffffffffffffffffff021916908373ffffffffffffffffffffffffffffffffffffffff16021790555060608201518160030160006101000a81548173ffffffffffffffffffffffffffffffffffffffff021916908373ffffffffffffffffffffffffffffffffffffffff16021790555060808201518160040190805190602001906110c6929190611782565b5060a08201518160050190805190602001906110e3929190611782565b5060c0820151816006019080519060200190611100929190611782565b5060e082015181600701908051906020019061111d929190611782565b5061010082015181600801908051906020019061113b929190611782565b50505050505050505050505050565b6111526115f7565b600080600090505b600380549050811015611231578373ffffffffffffffffffffffffffffffffffffffff1660038281548110151561118d57fe5b906000526020600020906003020160020160009054906101000a900473ffffffffffffffffffffffffffffffffffffffff1673ffffffffffffffffffffffffffffffffffffffff161415611224578180548060010182816111ee91906115cb565b9160005260206000209001600060038481548110151561120a57fe5b906000526020600020906003020160000154909190915055505b808060010191505061115a565b8180548060200260200160405190810160405280929190818152602001828054801561127c57602002820191906000526020600020905b815481526020019060010190808311611268575b505050505092505050919050565b6112926115f7565b600080600090505b600480549050811015611371578373ffffffffffffffffffffffffffffffffffffffff166004828154811015156112cd57fe5b906000526020600020906009020160020160009054906101000a900473ffffffffffffffffffffffffffffffffffffffff1673ffffffffffffffffffffffffffffffffffffffff1614156113645781805480600101828161132e91906115cb565b9160005260206000209001600060048481548110151561134a57fe5b906000526020600020906009020160000154909190915055505b808060010191505061129a565b818054806020026020016040519081016040528092919081815260200182805480156113bc57602002820191906000526020600020905b8154815260200190600101908083116113a8575b505050505092505050919050565b60006001600260008473ffffffffffffffffffffffffffffffffffffffff1673ffffffffffffffffffffffffffffffffffffffff16815260200190815260200160002060050160006101000a81548160ff021916908315150217905550600260008373ffffffffffffffffffffffffffffffffffffffff1673ffffffffffffffffffffffffffffffffffffffff16815260200190815260200160002060050160009054906101000a900460ff169050919050565b6114866115f7565b600080600090505b600380549050811015611565578373ffffffffffffffffffffffffffffffffffffffff166003828154811015156114c157fe5b906000526020600020906003020160010160059054906101000a900473ffffffffffffffffffffffffffffffffffffffff1673ffffffffffffffffffffffffffffffffffffffff1614156115585781805480600101828161152291906115cb565b9160005260206000209001600060038481548110151561153e57fe5b906000526020600020906003020160000154909190915055505b808060010191505061148e565b818054806020026020016040519081016040528092919081815260200182805480156115b057602002820191906000526020600020905b81548152602001906001019080831161159c575b505050505092505050919050565b6000600160005401905090565b8154818355818115116115f2578183600052602060002091820191016115f19190611802565b5b505050565b602060405190810160405280600081525090565b6101006040519081016040528060008152602001600015158152602001600015158152602001600015158152602001600015158152602001600015158152602001600073ffffffffffffffffffffffffffffffffffffffff168152602001600073ffffffffffffffffffffffffffffffffffffffff1681525090565b8154818355818115116116b4576003028160030283600052602060002091820191016116b39190611827565b5b505050565b610120604051908101604052806000815260200160008152602001600073ffffffffffffffffffffffffffffffffffffffff168152602001600073ffffffffffffffffffffffffffffffffffffffff168152602001611716611900565b8152602001611723611900565b8152602001611730611900565b815260200161173d611900565b815260200161174a611900565b81525090565b81548183558181151161177d5760090281600902836000526020600020918201910161177c9190611914565b5b505050565b828054600181600116156101000203166002900490600052602060002090601f016020900481019282601f106117c357805160ff19168380011785556117f1565b828001600101855582156117f1579182015b828111156117f05782518255916020019190600101906117d5565b5b5090506117fe9190611802565b5090565b61182491905b80821115611820576000816000905550600101611808565b5090565b90565b6118fd91905b808211156118f9576000808201600090556001820160006101000a81549060ff02191690556001820160016101000a81549060ff02191690556001820160026101000a81549060ff02191690556001820160036101000a81549060ff02191690556001820160046101000a81549060ff02191690556001820160056101000a81549073ffffffffffffffffffffffffffffffffffffffff02191690556002820160006101000a81549073ffffffffffffffffffffffffffffffffffffffff02191690555060030161182d565b5090565b90565b602060405190810160405280600081525090565b6119de91905b808211156119da5760008082016000905560018201600090556002820160006101000a81549073ffffffffffffffffffffffffffffffffffffffff02191690556003820160006101000a81549073ffffffffffffffffffffffffffffffffffffffff021916905560048201600061199191906119e1565b6005820160006119a191906119e1565b6006820160006119b191906119e1565b6007820160006119c191906119e1565b6008820160006119d191906119e1565b5060090161191a565b5090565b90565b50805460018160011615610100020316600290046000825580601f10611a075750611a26565b601f016020900490600052602060002090810190611a259190611802565b5b505600a165627a7a723058205257d77cbda6a66bff1170da136cc55c47c14081ec1e3ca491589959868cf7c30029",
  "source": "pragma solidity ^0.4.1;\r\n\r\ncontract UserIdentityManagement {\r\n\r\nuint counter;\r\n   struct Account {\r\n       string firstName;\r\n       string lastName;\r\n       string dateOfBirth;\r\n       string phoneNumber;\r\n       string gender;\r\n       bool isLocked;\r\n   }\r\n\r\n   struct Proposal {\r\n         uint proposalId;\r\n         bool firstName;\r\n         bool lastName;\r\n         bool dateOfBirth;\r\n         bool gender;\r\n         bool phoneNumber;\r\n         address sender;\r\n         address reciever;\r\n    }\r\n\r\n    struct Grant {\r\n       uint grantId;\r\n       uint proposalId;\r\n       address sender;\r\n       address reciever;\r\n       string firstName;\r\n       string lastName;\r\n       string dateOfBirth;\r\n       string phoneNumber;\r\n       string gender;\r\n    }\r\n\r\n   address owner;\r\n   mapping(address => Account) citizens;\r\n  // mapping(address => Proposal) proposals;\r\n  // mapping(address => Grant) grants;\r\n\r\n   function UserIdentityManagement() public {\r\n        owner = msg.sender;\r\n   }\r\n\r\n   function lock(address toLock) returns (bool isLocked) {\r\n       citizens[toLock].isLocked = true;\r\n       return citizens[toLock].isLocked;\r\n   }\r\n\r\n   function unLock(address toLock) returns (bool isLocked) {\r\n       citizens[toLock].isLocked = false;\r\n       return citizens[toLock].isLocked;\r\n   }\r\n\r\n   Proposal[] proposals;\r\n   function sendProposal(address s, address r, bool fn, bool ln, bool dob, bool gn, bool ph) public {\r\n\r\n       Proposal memory pr = Proposal({proposalId: getCounter(), firstName:fn, lastName:ln, dateOfBirth:dob, gender:gn, phoneNumber:ph, sender:s, reciever:r});\r\n        proposals.push(pr);\r\n    }\r\n\r\n\r\n    Grant[] grants;\r\n    //Grant[] sentGrants;\r\n    function sendGrant(address s, address r, uint pid, bool fn, bool ln, bool dob, bool gn, bool ph) public {\r\n\r\n       Grant memory g = Grant({grantId:0, proposalId:0, sender:msg.sender, reciever:msg.sender, firstName:\"\", lastName:\"\", gender:\"\", phoneNumber:\"\",dateOfBirth:\"\"});\r\n        g.grantId=getCounter();\r\n        g.proposalId=pid;\r\n        g.sender=s;\r\n        g.reciever =r;\r\n\r\n        if (fn) {g.firstName = citizens[s].firstName;}\r\n        if (ln) {g.lastName = citizens[s].lastName;}\r\n        if (gn) {g.gender = citizens[s].gender;}\r\n        if (ph) {g.phoneNumber = citizens[s].phoneNumber;}\r\n        if (dob) {g.dateOfBirth = citizens[s].dateOfBirth;}\r\n        grants.push(g);\r\n    }\r\n\r\n\r\n    uint[] requesterIndex;\r\n    mapping (uint => address) requesterMapping;\r\n    function getRequesterMapping(address requesterAddress, uint aId) public {\r\n\r\n             requesterMapping[aId] = requesterAddress;\r\n             requesterIndex.push(aId);\r\n    }\r\n\r\n    function kill() public {\r\n        if ( msg.sender==owner) {\r\n            selfdestruct(owner);\r\n        }\r\n    }\r\n\r\n  function viewSentProposals(address s) public returns(uint[] proposalIds) {\r\n\r\n     uint[] pIds;\r\n      for (uint index = 0; index < proposals.length; index++) {\r\n        if (proposals[index].sender == s) {\r\n              pIds.push(proposals[index].proposalId);\r\n        }\r\n      }\r\n\r\n      return pIds;\r\n\r\n  }\r\n\r\n  function viewReceivedProposals(address r) public returns(uint[] proposalIds) {\r\n    uint[]  pIds;\r\n    for (uint index = 0; index < proposals.length; index++) {\r\n        if (proposals[index].reciever == r) {\r\n              pIds.push(proposals[index].proposalId);\r\n        }\r\n      }\r\n      return pIds;\r\n }\r\n\r\n function viewSentGrant(address s) public returns(uint[] grantIds) {\r\n\r\n   uint[] gIds;\r\n      for (uint index = 0; index < grants.length; index++) {\r\n        if (grants[index].sender == s) {\r\n              gIds.push(grants[index].grantId);\r\n        }\r\n      }\r\n      return gIds;\r\n }\r\n\r\n  function viewReceivedGrants(address r) public returns(uint[] grantIds) {\r\n    uint[]  gIds;\r\n    for (uint index = 0; index < grants.length; index++) {\r\n        if (grants[index].reciever == r) {\r\n              gIds.push(grants[index].grantId);\r\n        }\r\n      }\r\n      return gIds;\r\n }\r\n\r\nfunction getCounter() private returns(uint cnt) {\r\n      return counter + 1;\r\n    }\r\n\r\n}\r\n",
  "sourcePath": "C:\\IdentityManagement\\IdentityManagementApp\\user-idm\\contracts\\UserIdentityManagement.sol",
  "compiler": {
    "name": "solc",
    "version": "0.4.18+commit.9cf6e910.Emscripten.clang"
  },
  "schemaVersion": "1.0.1",
  "updatedAt": "2018-01-21T10:08:03.655Z"
}